S010000054455354414C534F2E73726563A5
S11300000C942A000C9434000C9434000C943400A6
S11300100C9434000C9434000C9434000C9434008C
S11300200C9434000C9434000C9434000C9434007C
S11300300C9434000C9434000C9434000C9434006C
S11300400C9434000C9434000C9434000C9434005C
S11300500C94340011241FBECFE5D8E0DEBFCDBF21
S11300600E9436000C948B000C940000A09AB8985F
S1130070C09A8FEF81BBA19A87B390E08D7F87BB35
S1130080C19AA29A87B390E08B7F87BBC29AA39A46
S1130090BB9AC39AB09902C0A89A04C085B390E0F1
S11300A08E7F85BB86B390E08095909581FF02C0DA
S11300B0A99A04C085B390E08D7F85BB86B390E098
S11300C08095909582FF02C0AA9A04C085B390E0FF
S11300D08B7F85BB86B390E08095909583FF02C0AB
S11300E0AB9A04C085B390E0877F85BB80B32FEFC4
S11300F084E39CE0215080409040E1F700C0000080
S113010090982FEF84E39CE0215080409040E1F7E9
S10D011000C00000BFCFF894FFCF39
S9030000FC
