:100000000C942A000C9434000C9434000C943400AA
:100010000C9434000C9434000C9434000C94340090
:100020000C9434000C9434000C9434000C94340080
:100030000C9434000C9434000C9434000C94340070
:100040000C9434000C9434000C9434000C94340060
:100050000C94340011241FBECFE5D8E0DEBFCDBF25
:100060000E9436000C947D000C940000A09AB89871
:10007000C09A8FEF81BBA19A87B390E08D7F87BB39
:10008000C19AA29A87B390E08B7F87BBC29AA39A4A
:10009000BB9AC39A2FEFB09903C085B3816003C0A8
:1000A00085B390E08E7F85BB86B390E08095909578
:1000B00081FF03C085B3826003C085B390E08D7F6C
:1000C00085BB86B390E08095909582FF03C085B391
:1000D000846003C085B390E08B7F85BB86B390E0DE
:1000E0008095909583FF03C085B3886003C085B376
:0E00F00090E0877F85BB21BBCECFF894FFCF79
:00000001FF
